:10100000404300201547000077FB00000147000027
:1010100001470000014700000147000000000000F8
:10102000000000000000000000000000E548000093
:1010300001470000000000007D480000014700005B
:10104000314B0000150A0100314B0000314B00000C
:10105000314B0000314B0000314B0000314B0000A0
:10106000314B0000314B00007DB50000314B0000DA
:10107000314B0000314B0000314B0000314B000080
:10108000314B0000314B0000314B0000314B000070
:101090002F0A0100314B0000314B0000314B0000A2
:1010A000314B0000314B0000314B0000314B000050
:1010B000314B0000314B0000314B0000314B000040
:1010C000314B0000314B0000314B0000314B000030
:1010D000314B0000314B0000314B0000314B000020
:1010E000314B0000314B0000314B0000314B000010
:1010F000314B0000314B0000314B0000314B000000
:1011000053B94AB9002908BF00281CBF4FF0FF316E
:101110004FF0FF3000F00CB8ADF1080C6DE904CED3
:1011200000F0F4F8DDF804E0DDE9022304B07047D4
:10113000704700BF014B1B681B6818470000002068
:10114000014B1B689B68184700000020014B1B687F
:10115000DB68184700000020014B1B681B6918471B
:1011600000000020014B1B685B691847000000204D
:10117000014B1B689B69184700000020014B1B684E
:101180005B6A18470000002010B4034C24686468B0
:10119000A44610BC604700BF0000002030B50346E5
:1011A000114890F91C209A4219DD90F924209A42A6
:1011B00017DA9A1A846AA05C0C4A15569D420DD023
:1011C0000E32002918BF01309442C0B206D129B1B5
:1011D000013BDBB2012B01D80130C0B230BD0D2084
:1011E000FCE70020FAE700BFC80400204C1E010005
:1011F00008B5054B93F91C30984203DAFFF7CEFF90
:10120000024B1B56184608BDC80400204C1E0100A6
:1012100010B51C4C94F82C3073B9012384F82C3091
:1012200000F01FFA48B1184BA362D823236284F858
:1012300024300823A361237710BD00F027FA00288B
:10124000F1D100F02CFA0028EDD100F0EFF938B11F
:101250000E4BA362D823236284F824300423E9E7E9
:1012600000F0EDF90028F3D100F0F2F90028EFD1F9
:1012700000F000FA0028EBD14FF4DB71742000F08D
:1012800019F800BFC8040020871E01005A1E010083
:10129000BFF34F8F0549064BCA6802F4E06213435F
:1012A000CB60BFF34F8F00BFFDE700BF00ED00E054
:1012B0000400FA051FB572B6134B5D688DB9FFF7D0
:1012C000E7FFB2FBF6F2DCB20133002AF9D104F1F8
:1012D00010036B4403F80C2C0A2234B901A8A84768
:1012E000EDE7024600230A26EDE7631E04AEDCB2FA
:1012F00056FA83F3B0FBF2F602FB1600303003F827
:101300000C0C3046E9E700BF340A00202DE9F04715
:1013100086468C460846089E154674461946002B9C
:1013200040F0C2808542B2FA82F245D94AB1C2F198
:10133000200300FA02FC2EFA03F3954043EA0C0C5A
:1013400094404FEA154EA8B2BCFBFEF8230C0EFBEE
:1013500018CC08FB00F943EA0C43994528D9EB184F
:1013600008F1FF3704D2994502D9A8F102072B44AE
:10137000A3EB0903A4B2B3FBFEFC0EFB1C330CFB76
:1013800000F044EA0344A04214D92C190CF1FF33B5
:1013900004D2A04202D9ACF102032C44241A43EA3D
:1013A00007401EB1D440002334607360BDE8F0876D
:1013B0004746DDE76346F1E792BB431B01214FEA55
:1013C000154EAFB2B3FBFEFC200C0EFB1C330CFB26
:1013D00007F840EA0343984562D9EB180CF1FF3057
:1013E00004D2984502D9ACF102002B44A3EB0803C8
:1013F000A4B2B3FBFEFC0EFB1C330CFB07F744EA64
:101400000344A7424ED92C190CF1FF3304D2A74252
:1014100002D9ACF102032C44E41B43EA0040C0E7CC
:10142000C2F1200320FA03F1954090402EFA03F315
:1014300003434FEA154EAFB2B1FBFEFC0EFB1C108E
:10144000190C0CFB07F841EA0041884504FA02F444
:1014500022D969180CF1FF3004D2884502D9ACF1C9
:1014600002002944A1EB08019BB2B1FBFEFC0EFB7C
:101470001C110CFB07F743EA01439F420ED9EB18FE
:101480000CF1FF3104D29F4202D9ACF102012B448E
:10149000DB1B41EA004192E76046E3E76146F7E77C
:1014A0006046A3E76346B7E7834206D916B9002131
:1014B00008467BE7C6E900E0F9E7B3FA83F78FB99E
:1014C000834201D3724508D8BEEB020460EB0303EC
:1014D00001209C461EB9002168E73846FAE7C6E9B4
:1014E000004CF8E7C7F1200CBB4022FA0CF41C4377
:1014F0002EFA0CF120FA0CF3B84001434FEA1449DC
:101500000EFA07F5B3FBF9F81FFA84FE09FB183051
:101510000B0C08FB0EFA43EA00439A4502FA07F265
:1015200040D9E31808F1FF3004D29A4502D9A8F156
:1015300002002344A3EB0A0389B2B3FBF9F809FBC9
:10154000183308FB0EFE41EA03418E452CD9611881
:1015500008F1FF3304D28E4502D9A8F102032144D9
:1015600043EA0040A0FB0298A1EB0E014145CE46A4
:10157000434602D306D14D4504D2B9EB020E68EBC7
:1015800004030138002EA6D0B5EB0E0261EB030177
:1015900001FA0CFC22FA07F34CEA0303F940C6E90E
:1015A000003198E74046C5E74346D9E7FFF730BE2C
:1015B000801A00F3070038B540B20D4659B2144600
:1015C000FFF716FE0023287020446C70AB7040B209
:1015D00038BD002070474FF0FF3070474FF0FF30AC
:1015E000704770477047002070474FF0FF307047DA
:1015F0000020704790F90030002B14BF6FF01500E9
:10160000002070470023037070470022FFF7D0BF0F
:10161000002070474FF0FF3070474FF0FF307047A9
:101620004FF0FF3070470023037070474FF0805336
:10163000D3F83001A0F10F035842584170474FF0E2
:101640008053D3F83001A0F10A0358425841704743
:101650004FF08053D3F83001A0F10E0358425841A7
:1016600070474FF08053D3F83001A0F11003584277
:10167000584170474FF08053D3F83001062803D00B
:10168000431C584258417047012070474FF0805327
:10169000D3F83001A0F10D035842584170474FF084
:1016A0008053D3F83001A0F10803584258417047E5
:1016B00000280CBF6FF01500002070470020704715
:1016C00007230370002070470020704700207047F8
:1016D000034613F8012B002AFBD1181A0138704772
:1016E00008B500F00703591EC9B2032994BF0021B1
:1016F000012110F0060F03D0052B1BD9012200E0B9
:101700000122033BDBB2032B94BF0023012310F023
:10171000040F0CBF01200020120242EA811242EAAB
:10172000432242EA0032044883689B684FF49A518E
:10173000984708BD0022E4E7A41B0100F0B589B07A
:101740000378012B09D0022B0CD00BB109B0F0BDEE
:1017500044211F480DF0F1FFF8E744211D480DF02A
:10176000ECFFF3E71C4808F059FA00282AD11A4C7C
:10177000A379E279217A607AA57AE67A277B0697BF
:101780000596049503900291019200936379227863
:10179000442112480DF0D1FFA079FFF7A1FF637932
:1017A00003F0F303612B06D0802BCFD10A4B9B793A
:1017B000052BCBD102E0A279092AF5D1064800F029
:1017C0009FFAC3E7452106480DF0B7FFBEE700BF0B
:1017D000E81E0100001F0100180F0020181F010063
:1017E000781F010030B10022026042608260012255
:1017F0004260704710B5064C4FF48572214605488B
:101800000DF08CFF4FF4857120460DF080FF00BF76
:101810009C1F0100CC1F0100F8B586684768046969
:1018200012F0FC6F33D1134602F03002302A3AD066
:10183000434A1A40434DAA4241D003F00602042A0B
:1018400049D013F4402202D013F4003F4FD0B2F538
:10185000402F58D013F4801F05D022B113F0010F90
:1018600001D083F4402323F480123D684FF0010C33
:101870000CFA01FC15EA0C0F51D013F0010F5AD0ED
:1018800023684CEA0303236033689847F8BD2E4C65
:101890004FF4737221462D480DF040FF4FF47371E1
:1018A00020460DF034FF284C40F2CF322146274825
:1018B0000DF034FF40F2CF3120460DF028FF224CCE
:1018C00040F2D332214621480DF028FF40F2D331B7
:1018D00020460DF01CFF1C4C40F2D63221461B481E
:1018E0000DF01CFF40F2D63120460DF010FF164CD3
:1018F00040F2D932214615480DF010FF40F2D9319F
:1019000020460DF004FF104C40F2DD3221460F4816
:101910000DF004FF40F2DD3120460DF0F8FE0A4CD8
:1019200040F2E932214609480DF0F8FE40F2E93173
:1019300020460DF0ECFE236823EA0C032360A3E7A6
:101940000200030002000100E41F0100CC1F01009F
:1019500038B511480FF0D9FD68B10024032C18D810
:101960004FF400310D4800EBC4000DF002FC0546B9
:1019700040B90134F2E7452109480DF0DEFE6FF071
:10198000120507E003462246452106480DF0D5FE24
:1019900000E00025284638BDA41B0100DC21010021
:1019A000182001003420010010B584B0002005F09B
:1019B000FDFFB8B1044601A8FFF714FF69462046B1
:1019C00000F062FD041E14DB029B13F0030F16D11E
:1019D000039CB4B1224645210D480DF0AEFE2046D1
:1019E00004B010BD45210B480DF0A7FE6FF00504B3
:1019F000F5E72246452108480DF09FFEEFE76FF01E
:101A00000A04002CE0D1442104480DF096FEE6E7DC
:101A1000A42001005C20010084200100C8200100F6
:101A200000B58BB04FF0E73309934FF0C233089302
:101A3000254B06AA93E8030082E803000DF1040E8B
:101A400003F1080CBCE80F00AEE80F00DCF8003032
:101A5000CEF8003001238DF805301C4A02928DF833
:101A6000163001A807F052FF034618B118460BB014
:101A70005DF804FB164B0022C3F82C250322C3F8A3
:101A800030250222C3F83425124AC3F838254FF610
:101A9000FF72C3F83C25502008F0B4F90346002833
:101AA000E4D109A808F056F903460028DED108A8B9
:101AB00008F068F903460028D8D1082106A808F0E4
:101AC00079F90346D2E700BF201E01003D17000050
:101AD000001000402110010000B58BB049212748BB
:101AE0000DF02BFEFFF760FF18B100200BB05DF882
:101AF00004FBFFF72DFF0028F7D1FFF791FF024607
:101B000060BB49211E480DF018FE1E4807F0A4FFD7
:101B1000024640BB49211C480DF00FFE08F0C2F8F8
:101B2000024628BB00F0CEF82522002168460FF0BF
:101B3000C3FF164800F09EF8684600F0EBF8002856
:101B4000FAD10DF10502442111480DF0F6FD9DF882
:101B500000100DF1050000F09FF8EDE745210D485C
:101B60000DF0EBFDC1E745210B480DF0E6FDBCE7AC
:101B700045210A480DF0E1FDB7E700BFE020010074
:101B80002C210100F800002068210100B021010093
:101B9000C4210100042101004C2101009021010019
:101BA00070B582B004460DF00CFBB0B1A368DB6ADF
:101BB00013B12046984780B101220DF1070120465C
:101BC0000DF0E2FA9DF80720442121480DF0B5FD03
:101BD000204B1B781BB1012B09D002B070BD9DF8C2
:101BE00007201D4B1A701B4B01221A70F5E71B4989
:101BF0000A78531CDBB20B709DF807001849885413
:101C0000154A1278511E8B42E7DB15490024CC544B
:101C1000144D202328460FF0BBFE2A4644211248CB
:101C20000DF08BFD442111480DF087FD0A4E3378ED
:101C3000013B691F05F8053C002200230C480AF00F
:101C4000CDF93470034B1C70044B1C70C5E700BF0A
:101C500004220100CA2C0020C92C0020C82C00201E
:101C6000680F0020450F00201822010020220100EB
:101C7000B003002070B50646FFF72AFD0546002494
:101C800005E0315D034883685B6898470134AC42E6
:101C9000F7DB70BDCC1B010070B506460D46C9B21E
:101CA000074883685B689847002405E0315D044875
:101CB00083685B6898470134A542F7DC70BD00BFBC
:101CC000CC1B010038B50B480FF01FFC58B1094D73
:101CD0000022094928460DF060FA044628460DF016
:101CE0006AFAE0B238BD442104480DF026FD012017
:101CF000F8E700BFCC1B0100A11B00002822010057
:101D000008B501460022002301480AF067F908BD22
:101D1000B003002008B501460022002301480AF064
:101D200001FA08BDB003002008B5024B1B689847B4
:101D300008BD00BF20010020014B1860704700BFA4
:101D40002001002000B585B00A46002300930193CE
:101D50000293039302238DF80230044B0193014652
:101D600068460CF0A9FF05B05DF804FB291D0000D2
:101D700080B505460E46174698460CF03DF90346D9
:101D80000FF0A2FE0446DFF8189049F800304246F2
:101D900039463046A84754F8090002F03BFD00BF21
:101DA0000800000081B310B5046820460DF0A3FAC6
:101DB0000146C20004EBC0035B8813F0010F0FD093
:101DC00000EB530334F833001B1A994212D1A318C5
:101DD0005A8822F001025A8020460DF0A8FA10BD60
:101DE0000A4CAF2221460A480DF098FCAF2120464C
:101DF0000DF08DFC054CB722214605480DF08EFCF8
:101E0000B72120460DF083FC704700BF5822010027
:101E1000CC1F01002DE9F843154606684B420B40E4
:101E200001F1FF3919EA010904D0032B4BD84C46C4
:101E3000994603E00C46042940D90423621E22423D
:101E400045D1002D63D0B268B2EBD50F62D96119CC
:101E5000C91A0B31C90830460DF09AFA0746002816
:101E60005BD0014630460DF0C5F900EB0908A044EF
:101E700008F1FF38B8FBF4F804FB08F8A8EB0908F0
:101E800008EB0504073424F00704414630460DF002
:101E900032FA0546A41BE410874224D3EF0006EB78
:101EA000C5035B8805EB53039C4226D33E447388ED
:101EB00043F0010373804046BDE8F88311460DF0FE
:101EC000A2FA8046F7E74C4699460423B6E7144C3D
:101ED0004FF4A272214613480DF020FC4FF4A2717A
:101EE00020460DF014FC0246394630460DF0CCF980
:101EF000394630460DF00FFAD0E7224629463046E3
:101F00000DF0C2F9214630460DF005FACEE74FF04C
:101F10000008D0E74FF00008CDE74FF00008CAE70F
:101F200058220100CC1F010070B5B2F5802F1FD2DE
:101F30000346042A28D9043AC81D20F007000A44A1
:101F400022F00702121AD508172A29D918608560CD
:101F50000023C360B5FA85F1C1F1200EC1F124015F
:101F60008900CE1DF1084B1CAB4225D8002335E07B
:101F70002C4C40F2EB1221462B480DF0CFFB40F2E7
:101F8000EB1120460DF0C3FB264C4FF4F9722146AD
:101F900025480DF0C3FB4FF4F97120460DF0B7FB57
:101FA000204C40F2FB1221461F480DF0B7FB40F2D7
:101FB000FB1120460DF0ABFB1A4C4FF40372214687
:101FC00019480DF0ABFB4FF4037120460DF09FFB59
:101FD00003F1040C002440F82C4001337345F7DB77
:101FE0004C00A4B244804FF0000CA0F800C044F0B4
:101FF000010444806B1A4FEA430E26F00704A51C27
:1020000020F805E0015322F00704951C20F805C0D4
:1020100002440353538843F0010353800DF07BF9CE
:1020200070BD00BF58220100CC1F010010B504464E
:102030008C46838B002A12DB03F007035A1F012A08
:1020400019D9042B4FD100210DF032FA20460DF0A2
:1020500059FA78B1A38B43F02003A3830AE0D0E9B7
:1020600000018CE803000023236063600121204607
:102070000DF01EFA10BDD0E900018CE8030000222B
:1020800022606260062B0FD0052B20D10021204654
:102090000DF00EFA20460DF035FA0028EAD0A38B99
:1020A00043F02003A383E5E7DCF8003053B1E28B73
:1020B0000132E2831A461B68002BF7D0002AF5D1C3
:1020C0001346F3E7022120460DF0F2F9E2E70C4C4B
:1020D00040F2091221460B480DF020FB40F2091195
:1020E00020460DF014FB064C40F21B122146054819
:1020F0000DF014FB40F21B1120460DF008FB00BF51
:102100007C220100CC1F01002DE9F04782B0838BB7
:10211000E1B10446154603F0070603F0080208463D
:1021200082B301291ED0022920D143F02003A383CA
:1021300004F1140009F098FD002800F0678185F390
:102140001188BFF36F8F02B0BDE8F087B54C40F245
:1021500033122146B4480DF0E1FA40F23311204623
:102160000DF0D5FA43F01003A383E1E7AD4C4FF433
:102170009E722146AC480DF0D1FA4FF49E71204674
:102180000DF0C5FA00230093019358E020460DF0AE
:10219000B9F956E0D4F818904A4669462046FFF748
:1021A00045FF0027A38B03F00708B04500F0FF8030
:1021B000A268002A00F0FB80012643F00803A383F5
:1021C00004F1140A504609F04FFD002800F0F88091
:1021D00085F31188BFF36F8F002E40F0FD80009BC8
:1021E0002BB14B464246694620460DF0CCF917B15B
:1021F0008E492046B8474FF04003EFF3118583F333
:102200001288BFF36F8F504609F01EFD002800F0C2
:10221000E980504609F038FDA38B23F00803A3831F
:10222000A38B13F0100F00F0E78023F01003A383BB
:102230000120A68B06F0070600283FF479AF02289C
:10224000A4D000283FF474AF0138042800F2A38022
:1022500001A353F820F000BF952100009723000050
:102260006D220000CF220000332300005EB92368F6
:10227000ABB123691F68F7B1062120460DF018F9AC
:102280004FF000098EE7674C4FF4AB722146664869
:102290000DF044FA4FF4AB7120460DF038FA614C62
:1022A00040F25712214660480DF038FA40F25711BB
:1022B00020460DF02CFA5B4C4FF4AD7221465A4883
:1022C0000DF02CFA4FF4AD7120460DF020FA022EDD
:1022D0000BD1E38BABB923695F68F7B104212046CA
:1022E0000DF0E6F84FF000095CE74E4C40F25D124D
:1022F00021464D480DF012FA40F25D1120460DF0D6
:1023000006FA484C4FF4AF72214647480DF006FAE2
:102310004FF4AF7120460DF0FAF9424C40F26112D1
:10232000214641480DF0FAF940F2611120460DF0C6
:10233000EEF9012E0BD12368ABB123699F68F7B189
:10234000052120460DF0B4F84FF000092AE7354C7E
:102350004FF4B272214634480DF0E0F94FF4B271F7
:1023600020460DF0D4F92F4C40F2651221462E483C
:102370000DF0D4F940F2651120460DF0C8F9294C52
:102380004FF4B472214628480DF0C8F94FF4B471E7
:1023900020460DF0BCF9234C40F26B122146224836
:1023A0000DF0BCF940F26B1120460DF0B0F9009A27
:1023B0000AB1002601E7002F3FF432AF0026FCE609
:1023C0001B4C40F23112214617480DF0A7F940F29C
:1023D000311120460DF09BF94A46414620460DF04A
:1023E0006FF8FCE6124C882221460F480DF096F952
:1023F000882120460DF08BF913F0200F04D023F034
:102400002003A383022014E7002012E7084C40F2C7
:102410003112214604480DF081F940F23111204675
:102420000DF075F97C220100CC1F0100352400005D
:10243000A0220100F8B504460D4600F114064FF045
:102440004003EFF3118783F31288BFF36F8F304699
:1024500009F0FAFB48B1304609F016FCA5613A468E
:1024600001212046FFF750FEF8BD054C8822214689
:1024700004480DF053F9882120460DF048F900BFBB
:10248000A0220100CC1F01002DE9F84F0446884628
:102490000DF051F8061E43DB04F114074FF0400322
:1024A000EFF3118A83F31288BFF36F8FD346384658
:1024B00009F0CAFB8146A8B1384609F0E5FBA58BB7
:1024C00005F00705E38B4FF6FF72934245D02E4689
:1024D000022D11D0062D34D8DFE805F02C46333319
:1024E0002C252C00354C8822214635480DF016F954
:1024F000882120460DF00BF90133E38300231A46AF
:1025000042B10022C8F800206268A2B3C2F800807D
:10251000C4F80480A3B3524602212046FFF7F4FD1D
:102520003046BDE8F88F6FF085064FF000094B4646
:102530004A46E5E7B5FA85F35B094A464FF00009DC
:10254000DEE7204C4FF4E47221461D480DF0E6F81A
:102550004FF4E47120460DF0DAF86FF00A064FF000
:1025600000094B464A46CBE76FF004064FF00009DE
:102570004B464A46C4E7C4F80480C4F80080C9E763
:10258000384609F071FB68B18BF31188BFF36F8F88
:10259000B9F1000FC4D000232A46414620460CF072
:1025A000DFFFBDE7054C40F23112214604480DF033
:1025B000B5F840F2311120460DF0A9F8A022010033
:1025C000CC1F01007C2201002DE9F041044600F1FE
:1025D00014054FF04003EFF3118683F31288BFF325
:1025E0006F8F284609F030FB70B13746284609F056
:1025F0004BFBA38B03F007039846022B11D0012B52
:102600000CD06FF0850812E01D4C882221461D4831
:102610000DF084F8882120460DF079F86FF0040859
:1026200005E0E38B73B1013B9BB2E383B3B1284672
:1026300009F01AFBC0B187F31188BFF36F8F4046D2
:10264000BDE8F081104C40F2EF1221460D480DF02C
:1026500065F840F2EF1120460DF059F8324602219C
:102660002046FFF751FDEAE7054C40F231122146C2
:1026700004480DF053F840F2311120460DF047F8B0
:10268000A0220100CC1F01007C2201002DE9F041B5
:10269000002851D00D460646002950D000F11408FC
:1026A0004FF04003EFF3118783F31288BFF36F8F6E
:1026B000404609F0C9FAE0B1404609F0E5FAB48BAA
:1026C00004F00704294630460CF0E2FED8B1062C8F
:1026D0001BD0042C19D0052C17D01A4C40F22D22F7
:1026E000214619480DF01AF840F22D2120460DF030
:1026F0000EF8164C8822214613480DF00FF8882159
:1027000020460DF004F86FF07704404609F0ACFA6B
:1027100030B187F31188BFF36F8F2046BDE8F08199
:102720000A4C40F23112214607480CF0F7FF40F204
:10273000311120460CF0EBFF6FF01504EDE76FF060
:102740001504EAE77C220100CC1F0100A022010051
:102750000346426802F003028160022A0BD872B974
:1027600010B5094C4522214608480CF0D7FF4521F9
:1027700020460CF0CCFF032AF2D1006800E00020D4
:1027800000225A60704700BFD0220100CC1F010018
:102790002DE9F04182B080460E46154600272A46B4
:1027A00001A940460CF039FF044602463146019823
:1027B0000FF074F9274426442D1B01D0002CEED1D4
:1027C000394640460CF04AFF18B9384602B0BDE819
:1027D000F081054C4922214604480CF09FFF492115
:1027E00020460CF094FF00BFF4220100CC1F010032
:1027F0002DE9F04182B080460E461546002709E0DB
:102800000246019930460FF049F9264427442D1B12
:1028100009D044B12A4601A940460CF03DFF0446C8
:10282000002EEDD1F2E7394640460CF052FF18B9C0
:10283000384602B0BDE8F081044C8E22214604489F
:102840000CF06CFF8E2120460CF061FFF422010099
:10285000CC1F010008B504464FF04002EFF311838E
:1028600082F31288BFF36F8F06F03CF820460DF01C
:10287000AFF903480CF0B0FC02F026F9FCE700BF0A
:102880001C230100014B0360002070474823010016
:10289000072801D900207047024B034483F8BB107E
:1028A00001207047880F0020072801D900207047B9
:1028B000024B034493F8BB00704700BF880F002011
:1028C00010B50378C3F341130A33064C54F8233090
:1028D00023B19847002803DB012010BD0020FCE74E
:1028E0000020FAE7880F00200A30024B43F820103E
:1028F000704700BF880F0020014B5862704700BF2F
:10290000880F002030B545884FEA152EAEF104033C
:10291000DBB2012B21D9EDB2BEF1070F1FD8114B4D
:102920005B6A002400E00344187840B193F801C0CA
:10293000F445F8D1A54201D00134F4E7012068B193
:102940001360BEF1020F02D01B780B6006E09A788C
:10295000DB7842EA03230B6000E0002030BD00205A
:10296000FCE700BF880F002038B50C460D4B5B6AB2
:10297000156800E013441A788AB193F801C0BCF1DD
:10298000040FF7D193F802C0B0F804E0F445F1D198
:102990006046FFF789FF28700120206000E00020DA
:1029A00038BD00BF880F0020034B93F8BA000038F1
:1029B00018BF0120704700BF880F0020074B5B6ADB
:1029C00000E013441A783AB159780229F9D11979FB
:1029D0008142F6D90120704700207047880F0020FF
:1029E000014B9861704700BF880F0020014BD861F0
:1029F000704700BF880F002008B510F0700F07D196
:102A000000F07F0310F0800F09D10120984008BD2D
:102A10000246452104480CF090FE0020F7E71033F1
:102A200001209840F3E700BF4823010038B5044671
:102A300000790DF0C3F905462079FFF7DDFF044A60
:102A4000D2F8C43023EA0003C2F8C430284638BDA7
:102A5000880F002038B505460DF0B0F910F1780F59
:102A600001D0044660B92846FFF7C6FF074AD2F8EE
:102A7000C43023EA0003C2F8C4300024204638BD25
:102A80002A46452102480CF058FEF7E7880F00203F
:102A9000682301002DE9F04106460F469046194C87
:102AA00005E0424639463046A84728E02434164B14
:102AB0009C4216D8144B9C421FD26368134A556A35
:102AC000AB42F3D3A569002DF0D0997832799142C9
:102AD000E7D05B79012BE9D1424639463046A84719
:102AE000E4E70B4C40F2D75221460A480CF016FEA0
:102AF00040F2D75120460CF00AFE6FF08500BDE889
:102B0000F08100BFA4040020C8040020880F00202A
:102B100090230100CC1F0100F8B507460E4615466C
:102B2000114C00E02434114B9C420DD80F4B9C42B9
:102B300016D26369002BF5D02A46314638469847AD
:102B400003460028EED10DE0094C40F20762214611
:102B500008480CF0E3FD40F2076120460CF0D7FD79
:102B60006FF085031846F8BDA4040020C8040020B7
:102B700090230100CC1F010038B5134B00E0243333
:102B8000124CA34211D8114CA3421AD25C68104DCA
:102B90006D6AAC42F3D31D69002DF0D094F802C0E9
:102BA0000479A445EBD1A8470DE00A4C40F2BA5293
:102BB000214609480CF0B2FD40F2BA5120460CF013
:102BC000A6FD6FF0850038BDA4040020C8040020D5
:102BD000880F002090230100CC1F010030F08003FB
:102BE00024D010B51349144B994211D8124B994275
:102BF0001AD20C6A00230A7F9A4207D904EBC30257
:102C00001279824214D00133DBB2F4E72431EAE7CF
:102C10000A4C40F2F332214609480CF07FFD40F2A5
:102C2000F33120460CF073FD002002E001207047D4
:102C3000012010BDA4040020C8040020902301003E
:102C4000CC1F010070B582B00C4600798DF80700EA
:102C5000FFF7C4FF054640B19DF8076036F08003DA
:102C600006D0FFF7A1FE18B90546284602B070BD90
:102C70005CB1304603F08AF80A4BDB69002BF4D0D4
:102C80000DF1070108209847EFE7304603F0B4F84C
:102C9000044BDB69002BE8D00DF1070109209847B0
:102CA000E3E700BF880F0020F8B50646114D124B30
:102CB0009D4211D8104B9D421AD22F6A00242B7FBF
:102CC000A34207D907EBC400B047002811DB013449
:102CD000E4B2F4E72435EAE7084C40F2C142214669
:102CE00007480CF01BFD40F2C14120460CF00FFDDF
:102CF0000020F8BDA4040020C80400209023010097
:102D0000CC1F010030B583B0044680788DF80000F8
:102D1000A388ADF80230E37803F003038DF80430A4
:102D2000FFF76AFE05461D4BD3F8C430034219D1A4
:102D3000684602F0FDFF10F1780F00D0E8B99DF869
:102D4000000003F0A3F810F1780F00D0E8B9134B9E
:102D5000012083F8B900D3F8C4201543C3F8C45048
:102D600003B030BD20460CF001FD0EF00CFC002835
:102D7000DED196200BF00AF9DAE79DF80020452114
:102D800007480CF0DAFC0020EAE79DF80020452116
:102D900004480CF0D2FC0020E2E700BF880F0020BE
:102DA000C4230100F02301002DE9F8430646194B26
:102DB0005C6A0027FF25A846B94607E094F803801F
:102DC000A578B088854212D023781C442378C3B1FB
:102DD0006378042BF2D0052BF6D1B3889D42F3D152
:102DE000B278414620460CF0D6FC0746ECE77188E5
:102DF0008845E9D1C9B2C0B2FFF74AFD0746A146EE
:102E0000E2E7044BDB6913B149460720984738468F
:102E1000BDE8F883880F0020024B00221A605A6038
:102E2000704700BF431000202DE9F0410546224BBA
:102E30005C6A43881BB10027FF26B04610E0FFF70D
:102E4000EBFF6A881C4B83F8BA20DB6913B11B497E
:102E50000320984701271EE094F8038023781C4440
:102E60002378BBB16378042BF6D0052B07D0022B57
:102E7000F4D166796B889E42F0D10127EEE76B882A
:102E80009E42EBD1B8F1000FE8D12046FFF73AFFA0
:102E90000746E3E717B93846BDE8F081FFF7BCFF06
:102EA0006A88054B83F8BA20DB69002BF3D003490D
:102EB00003209847EFE700BF880F00204210002052
:102EC00010B5146890F90030002B06DB4378052B11
:102ED00018D0092B1DD0002010BD4378062B07D039
:102EE000082B08D00BB10020F6E70CF034FCF3E718
:102EF000FFF708FDF0E7084B93F8BA302370012084
:102F00000860E9E7807802F0ABFEB0FA80F0400993
:102F1000E2E7FFF789FFDFE7880F002070B505467D
:102F20000E46042803D0012803D01A4C11E0FFF705
:102F300073FF194B93F8B930002BF6D000F048FD21
:102F40001648FFF7B1FE144B002283F8B920ECE7D6
:102F50002434134B9C420AD8114B9C4213D2E36891
:102F6000002BF5D03246294620469847F0E70D4C15
:102F700040F2ED4221460C480CF0D0FB40F2ED410E
:102F800020460CF0C4FB044B1B6A13B131462846A3
:102F9000984770BDA4040020880F00202D2A00004F
:102FA000C804002090230100CC1F010070B5044626
:102FB0000D461646184B9B690BB1984748B12378CC
:102FC00003F01F03012B0DD0022B13D013B16FF0B0
:102FD000150070BD324629462046FFF771FF88B1C3
:102FE0000020F6E73246294620460CF0DDFB60B1B2
:102FF0000020EEE73246294620460CF01DFC38B191
:103000000020E6E76FF01500E3E76FF01500E0E75A
:103010006FF01500DDE700BF880F002070B5154E7A
:10302000154B9E4214D8144B9E421DD2356A002483
:10303000337F9C420AD205EBC40355F8341018794B
:1030400003F0A8F890B90134E4B2F1E72436E7E7D9
:103050000A4C40F21762214609480CF05FFB40F22F
:10306000176120460CF053FB002001E04FF0FF30C9
:1030700070BD00BFA4040020C804002090230100FC
:10308000CC1F010010B582B0154B1B7DF3B9144C59
:10309000E268019201ABA16880200CF0F0FBA3680C
:1030A000019A1344A360E3689B1AE360B3B9AAB121
:1030B000E28823699A4211DD94F8C82093FBF2F16B
:1030C00002FB113353B90122227507E00021044BA2
:1030D00019750B460A46802002F006FF02B010BDAB
:1030E000880F002010B584B000230393002840F01F
:1030F000898019B34F4BDA68002A6BDD03AB4D4969
:10310000896800200CF073FE002870DB494A936840
:1031100003990B449360D3685B1AD360002B7BD177
:10312000104602F1380342F8083F00F11001FFF7A2
:10313000C7FB002862D0FFF7A5FF6DE0082201A9B8
:103140000CF055FE00282EDB9DF80400394B18705A
:103150009DF805205A70BDF806205A80BDF8082059
:103160009A80BDF80A10D98003F138029A600022D3
:103170001A751A61DA6010F0800F02D1802916D812
:1031800001BB2D4A02F10801A2F10800FFF798FBEC
:10319000E0B1284BDA8819698A42A8BF0A46DA608A
:1031A000FFF770FF38E0802002F0F0FD34E04521A9
:1031B00022480CF0C2FA802002F0E8FD002002F064
:1031C000E5FD29E01B4B1961D96025E0802002F064
:1031D000DDFD21E003AB00221649896810460CF0A2
:1031E00006FE002818DA802002F0D0FD14E08020CE
:1031F00002F0CCFD002002F0C9FD0DE0802002F0BD
:10320000C5FD09E0802809D10A4BDB6813B9094BD9
:103210001B7D0BB1FFF736FF04B010BD084C40F228
:103220008912214607480CF079FA40F289112046AC
:103230000CF06DFA880F0020900F00201824010078
:1032400090230100CC1F010008B5FFF755FB08498A
:103250000020FFF749FB07490120FFF745FB06491E
:103260000220FFF741FB0548FFF7BAFB002008BD2D
:10327000AD2F0000792B0000192B0000952A0000CB
:1032800070B582B00546404C666A4FF0FF324FF091
:10329000FF333E4808F0F6FF94F8B830002B6AD1AF
:1032A00001200CF061FA041E67DB374B1D62384CBD
:1032B0002046FFF79BFB204602F080FF02F094FCC3
:1032C000041E5ADB00F0B0FB041E56DB7378012BA2
:1032D0004AD1F379002B47D02B4A82F8C830ADF899
:1032E000023000238DF804308DF80030684602F07B
:1032F0001FFD041E41DB80238DF80030684602F07C
:1033000017FD041E39DB2349002002F043FF041E91
:1033100033DB2049802002F03DFF041E2DDBFFF748
:103320007DFE041E29DB002002F0B0FD041E24DB1C
:103330000020FFF761FB144AD2F8C4300343C2F8FF
:10334000C430802002F0A2FD041E16DB8020FFF7AF
:1033500053FB0D4BD3F8C4200243C3F8C420012211
:1033600083F8B820002408E045210B480CF0E5F96B
:103370006FF0150401E06FF07704044809F072F86B
:10338000204602B070BD00BF880F00209C030020C3
:103390001D2F0000E53000003824010008B50B4B5C
:1033A00093F8B8307BB900F07BF928B1FFF74CFFF8
:1033B0000020FFF765FF08BD452105480CF0BDF969
:1033C0004FF0FF30F7E76FF07700F4E7880F002049
:1033D0006C24010010B582B0044600238DF8003043
:1033E0004022ADF802208DF80430684602F064FCFB
:1033F00020B9BDF80230E37102B010BD0823ADF86A
:103400000230684602F058FC0028F2D00023ADF8E4
:103410000230064C4FF4BC72214605480CF07EF990
:103420004FF4BC7120460CF072F900BFA4240100D7
:10343000CC1F010002460D480D4B984207D80C4B9B
:10344000984211D2436893420FD02430F4E710B56C
:10345000084C4FF48F72214607480CF05FF94FF487
:103460008F7120460CF053F900207047A40400200F
:10347000C8040020A4240100CC1F010010F8021B86
:10348000CA1E49080239002A1BDB00EB010C435C11
:10349000203BDBB25E2B09D8002383540139531E35
:1034A0009CF800C000F803C0023AECE710B5054CE8
:1034B000B322214604480CF031F9B32120460CF028
:1034C00026F97047A4240100CC1F010010B58AB072
:1034D0000DF1040C1D4C0FCCACE80F0023688CF8E8
:1034E000003000230693079308930993184A13604A
:1034F00053609360D3601382102106A80CF0E4FEA1
:10350000002820DD0828B8BF0820A0F1080C002200
:1035100017E00CEB020328336B4413F8103C510006
:103520000AA800EB131010F824EC094800F812E088
:1035300003F00F03013128336B4413F8243C435448
:103540000132072AE5DD02480AB010BDDC24010083
:103550005410002038B50446FFF7B8FF50B10546B7
:10356000FEF7B6F8024628B1102804D12946A01C5F
:103570000EF094FA38BD452101480CF0DEF8F9E769
:10358000F02401002DE9F04182B004464FF0011310
:10359000019300252F46A8462E4604E02046FFF75B
:1035A00019FF23781C442378002B63D06378052B04
:1035B000F7D801A252F823F0393600009D350000FB
:1035C0007136000039360000D135000009360000A0
:1035D000E378002BE5D1A37813B10137FFB2E0E720
:1035E0002046FFF727FF804630B18368002BF4D0D8
:1035F000394620469847F0E72246452123480CF0FB
:103600009CF84FF0FF303AE0B8F1000F0DD001AA5E
:10361000414620460CF04EF90028C2D045211C48F6
:103620000CF08BF84FF0FF3029E0452119480CF0E1
:1036300084F84FF0FF3022E0032D0AD06DB986B137
:10364000A31BB370C3F30723F37037710135EDB2D9
:10365000A7E72046FFF77EFFF0E72046FFF70EFFC3
:10366000F4E745210C480CF068F84FF0FF3006E015
:10367000264696E7A01C094B984203D1002002B0D1
:10368000BDE8F081FFF77EFFF9E700BF40250100AC
:10369000B025010068250100D4250100A304002005
:1036A00008B50648FFF76EFF08B9044808BD452174
:1036B00003480CF042F80020F8E700BF00040020A7
:1036C000F8250100002300E00133032B0CD89A01F8
:1036D00006498A5C8242F7D101EB83125268002AC4
:1036E000F2D001EB83107047002070476810002073
:1036F0002DE9F04182B0044610F82C5C50F8283CCB
:1037000013F1100F24D1036913F0020F36D050F8D3
:10371000202C2AB913F0040F22D143F004030361D3
:1037200001AB54F8241C28460CF0A9F80246D8B97D
:1037300054F8242C019B1A4444F8242C54F8202CCF
:10374000D21A44F8202C54F81C2C134444F81C3C86
:1037500054F8283C13F1100F4AD102B0BDE8F081B3
:10376000002340F8283CF3E72B4645212E480BF078
:10377000E4FF6FF0150344F8283CE9E701AB50F88B
:10378000202C50F8241C284602F03EFC0246A0B92A
:1037900054F8243C019E334444F8243C54F8203C23
:1037A0009B1B44F8203C54F81C3C334444F81C3C1C
:1037B0006EB9002344F8283CCAE72B4645211A4835
:1037C0000BF0BBFF6FF0150344F8283CC0E7284618
:1037D00002F0FAFCB6FBF0F300FB1366002EE8D112
:1037E00054F8203C002BE4D0284602F073FCAFE7ED
:1037F00054F8186C54F81C7C54F8148C0DF0C3FE6B
:1038000068B9002344F8183CA4F1100008F090FFB8
:10381000002EA2D0424639462846B0479DE72146B1
:1038200002480DF08CFF98E72C260100080B0020C1
:1038300070B582B006460C46FFF744FF631EDBB24C
:10384000012B0AD8054650B10DF09DFE08B1012CA0
:1038500016D105F12C00FFF74BFF02B070BD012C13
:10386000FBD101AB01220DF10301304602F0CCFB8C
:10387000019B002BF5D1452104480BF05EFFECE7DE
:1038800005F12C0102480DF05AFFE6E75026010031
:10389000080B00202DE9F84F064689461746984642
:1038A0000CF0ABF8002867D14FF04003EFF311851F
:1038B00083F31288BFF36F8F0024032C31D8A0014B
:1038C00018302F4B184404300022002308F07EFFEC
:1038D000824608B10134F0E7A201294B03EB8414BE
:1038E000D4F804B01BF1100F28D09E54C4F80890EF
:1038F000E760002323610A9B6361C4F83C800B9B53
:10390000A3616FF00F036360304602F05DFC00BB03
:1039100018F0020F2BD004F12C011A480DF00FFF04
:1039200005E0452118480BF008FF6FF00B0A85F3FE
:103930001188BFF36F8F5046BDE8F88F324645219E
:1039400012480BF0FAFE04F11C0008F0F1FEDA4612
:10395000EDE7304602F038FCB7FBF0F300FB1377DD
:10396000002FD5D0E36B43F00403E363D0E7304688
:1039700002F0B0FB8246DAE76FF00F0ADBE700BF28
:1039800068100020080B002070260100902601001E
:1039900010B54FF04003EFF3118483F31288BFF3A7
:1039A0006F8FFFF78FFE20B10146436813F1100FB0
:1039B00004D084F31188BFF36F8F10BD6FF08B03B9
:1039C00043602C3101480DF0BAFEF2E7080B0020ED
:1039D00038B5002404E085F31188BFF36F8F0134FC
:1039E000032C1CD84FF04003EFF3118583F31288AA
:1039F000BFF36F8F0A4B03EB84135B6813F1100F57
:103A0000E9D1074BA10103EB84126FF08B005060EA
:103A100028311944043103480DF091FEDBE738BD2D
:103A200068100020080B002070B5002511E0AC01E3
:103A300004F12800094E30440949043009F026F900
:103A400004F1180030440430012211460DF03FFE0D
:103A50000135032DEBD9002070BD00BF6810002098
:103A6000F136000070B504460E4615460179184837
:103A70000BF093FF30B394F90020002A18DB627832
:103A8000202A04D0222A0ED06FF0850019E02A687F
:103A9000116840F8101C9188927920F80C1C00F8ED
:103AA0000A2C00200DE0A27800F8092C002008E084
:103AB0006278212A09D1A0F110032B60072333601B
:103AC000002070BD6FF01200FBE76FF08500F8E793
:103AD0006811002008B5014603480BF072FF10B1D1
:103AE000012200F8072C08BD6811002008B5016903
:103AF000012381F84B300B6813B191F8493003B9B9
:103B000008BD083101480DF01AFEF9E7080B002046
:103B100008B50169012381F84A300B6813B191F8A7
:103B2000483003B908BD083101480DF008FEF9E737
:103B3000080B002038B50D461446012382F84830A2
:103B4000136813B192F84A305BB9D4F890301A690F
:103B50009B6893420BD004F118015DB10022002351
:103B60000BE002F1080107480DF0E9FDEDE73DB972
:103B700004F1180140F6CD420023024809F0A0F9F3
:103B800038BD00BF080B002030B583B00546144691
:103B90000A1E16DD04F14C01D4F88C00FEF7F8FD86
:103BA000012384F84930236813B194F84B306BB982
:103BB000D4F88C10CB694A684969521A9B1A3F2B7A
:103BC0000AD994F89E305BB903B030BD04F1080106
:103BD00009480DF0B4FDEBE7012384F8A030F3E7CA
:103BE0000194064B00930123402204F14C01284626
:103BF000FFF750FEE8E700BF080B0020893B0000FC
:103C000038B5046994F89E30A3B194F89F300BB195
:103C1000002010E084F84830D4F89000FEF7B8FD9A
:103C200005460022002304F11801034809F048F971
:103C3000284600E0002038BD080B002008B50346E8
:103C40004FF0000C80F89EC080F89FC080F849C0FB
:103C500080F848C00B4A92E80300C3F89400A3F828
:103C60009810090C83F89A1083F89CC083F89BC0C5
:103C700083F8A0C04022614603F14C000DF01CFF08
:103C800008BD00BF3C1E010030B583B00446D0F82B
:103C9000A4305D680139052906D8DFE801F0030585
:103CA0000723262AFFF7CAFF03B030BD90F89E30E5
:103CB000002BF9D1012380F89E302B6A02460021A7
:103CC000187BFFF761FF94F84830002BECD12B6A8A
:103CD000187D01940B4B0093022300221146FFF73D
:103CE000D9FDE1E7FFF7AAFFDEE7012380F89F3067
:103CF000DAE790F89F30002BD6D0002380F89F3071
:103D0000D2E700BF353B000038B50C4615460146EA
:103D100004480BF030FE20B12A462146A438FFF7B4
:103D2000B3FF38BD6811002010B582B08DF80710C0
:103D30000469002384F8483002E001200BF0EFFE14
:103D400001220DF10701D4F89000FEF721FD30B9F2
:103D50000DF019FC18B994F8A130002BEDD12122F7
:103D6000002304F11801024809F0AAF802B010BDBE
:103D7000080B002010B50469C4F8A40004F1A803DE
:103D80000022C4F8A8200B4A526872B11360094A95
:103D90005360094904F1080008F078FF074904F16D
:103DA000180009F063F8002010BD024A5360136048
:103DB000EFE700BF681100202BFA0000C13D0000B2
:103DC000F0B585B00446A0F11806D0F88C305B68D9
:103DD0001B6A1D7D28460BF010FE10B994F8863042
:103DE0000BB905B0F0BD4FF4806203A9A06F0BF0D2
:103DF00053FC07460028F4D0002384F8303010F03C
:103E00003F0F00D1471E0196064B009302233A460E
:103E100003992846FFF73EFD3946A06F0BF059FC89
:103E2000DFE700BF353B000030B583B0084D00240C
:103E300000944FF0FF334FF480620649284608F0A3
:103E4000A5FF0549284607F0DFFE204603B030BD38
:103E5000080B0020002D00202427010008B502488F
:103E60000AF082FD08BD00BF30270100B0F5680FE1
:103E700017D00CD840F6BA63984214D0B0F5683F1A
:103E800013D03A2801D00120704700207047094B19
:103E900098420CD0084B984201D001207047002076
:103EA00070470020704700207047002070470020B6
:103EB000704700BF3A00003A2C5F5CA9E8B108B532
:103EC0004268B2F5683F07D00F498A421AD00068AD
:103ED00008F0C8FA002008BD03680022BFF35B8F1A
:103EE00053E8001F012903D143E800200028F7D13F
:103EF000BFF35B8F04D11046EDE76FF4E0407047ED
:103F00000248E8E70248E6E72C5F5CA9E98FFFFF7B
:103F1000EA8FFFFF30B308B54268B2F5683F0CD0B6
:103F200012498A421CD000684FF0FF324FF0FF3335
:103F300008F0A8F988B10E480FE003680122BFF32A
:103F40005B8F53E8001F002903D143E800200028BD
:103F5000F7D1BFF35B8F01D1002008BD0448FCE717
:103F60000448FAE76FF4E040704700BF2C5F5CA99B
:103F7000E98FFFFFEA8FFFFF10B50446B0B1636819
:103F8000B3F5683F11D0B3F5680F0ED00D4A9342D8
:103F90000BD013F4686F0ED1236800221A605A60A8
:103FA0009A60DA601A61074B636010BD064B5B686C
:103FB00006489847E3E72168054807F0B5FD002368
:103FC0002360F0E72C5F5CA9C002002038270100C5
:103FD0007016002010B5044668B36068B0F5683FFD
:103FE00028D0B0F5680F25D0174B984228D0FFF79E
:103FF0003DFFC0B14FF0FF324FF0FF332146134871
:1040000007F030FD08B923681BB9114B5B681148F4
:104010009847236800221A605A609A60DA601A6131
:104020004FF46863636020680DF0F2FA636843F050
:104030003A03636010BD064B5B6807489847CCE7BE
:104040002368002BD3D1D5E72C5F5CA97016002024
:10405000C0020020602701003827010008B5402376
:104060001422044904480DF07FFA044904480AF078
:10407000EDFC08BD70110020701600209027010093
:10408000A427010010B582B00446836800934368FA
:10409000026845210B480BF050FB636900932369CC
:1040A000E268452108480BF048FBE26945210748D2
:1040B0000BF043FBA269452105480BF03EFB02B023
:1040C00010BD00BFB4270100E82701001C28010033
:1040D0003028010030BFFFF7FDBF00BF38B50446F0
:1040E000084D2A4608490DF0D9FC0848431E2B44C8
:1040F000B3FBF0F3064A002100FB03400DF0DCFCAB
:1041000038BD00BF000000001C1E010001000000BF
:104110000400000070B505460C480D4A0244013AFF
:10412000B2FBF0F20B4B0C4C1C44013CB4FBF3F41F
:1041300004FB03F300FB02340E1B3046FFF7CEFFF7
:10414000083EC5F8A46004F1080070BD010000003D
:10415000000000000400000004000000044B996807
:104160005869884203D003494FF080520A60704773
:10417000982A002004ED00E081690D4B5A6942F451
:1041800080725A61BFF34F8FBFF36F8F31F8021CFB
:104190005A6922F480725A61BFF34F8FBFF36F8F59
:1041A0004DF60273994201D00020704701207047FC
:1041B00000ED00E04FF0000C83F800C002F07F4CEF
:1041C000BCF17F4F13D102F00C0CBCF1080F04D0EE
:1041D00012F0080F08D00846704708B54521054879
:1041E0000BF0ABFA002008BD01221A7070470020C6
:1041F000704700BF64280100F8B505460F46144615
:10420000452133480BF099FA324B9B6A13F4805FD7
:1042100025D116262F4B9B6A13F4006F25D12D4B09
:104220009B6A13F4007F26D12A4B9B6A13F4806F9C
:104230003BD1284B9B6A13F4807F3CD1254B9B6A72
:1042400013F4005F3DD1234A936A43F47F439362A2
:10425000012128460BF095FC20703046F8BD452121
:104260001D480BF06AFA1726D4E745211B480BF0CE
:1042700064FA1826D3E7452119480BF05EFA154B6E
:104280009A6B9B6A13F4004F01D11926CCE74521A4
:1042900014480BF052FA37B10E4A936A23F40043E4
:1042A00093621926C0E71926BEE745210E480BF098
:1042B00044FA1A26BDE745210C480BF03EFA1B26AE
:1042C000C1E745210A480BF038FA1C26BBE700BFBE
:1042D0009428010000ED00E0B0280100C82801008A
:1042E000E0280100002901001C2901003C290100EF
:1042F0005C29010008B5452126480BF01EFA264B23
:104300009B6A13F0007F21D11D20234B9B6A13F081
:10431000807F21D1204B9B6A13F4002F22D11E4BAA
:104320009B6A13F4802F23D11B4B9B6A13F4003F2D
:1043300024D1194B9B6A13F4803F25D1164A936A06
:104340006FEA03436FEA1343936208BD45211348A4
:104350000BF0F3F91E20D8E7452111480BF0EDF9D9
:104360001F20D7E745210F480BF0E7F92120D6E7BA
:1043700045210D480BF0E1F92220D5E745210B48F6
:104380000BF0DBF92320D4E7452109480BF0D5F9E0
:104390002420D3E79029010000ED00E0B0290100BE
:1043A000C8290100E82901000C2A0100382A01006F
:1043B000582A010008B500230B70452101480BF075
:1043C000BCF908BD882A010008B50F2907DC054A99
:1043D000A1F11003452104480BF0AFF908BD034AD1
:1043E000F6E700BFB42A0100E82A0100CC2A010048
:1043F0002DE9F04104460F46154645214A480BF089
:104400009CF94A4B9B6A13F0100F3CD11026474B86
:104410009B6A13F0080F3CD1444B9B6A13F0020FC8
:104420003DD16FF01508414B9B6A13F0010F54D139
:104430003E4B9B6A13F0200F55D13C4B9B6A13F007
:10444000100F04D1394B9B6A13F0020F04D0374B85
:104450005B6813F4006F4CD1344B9B6A13F0200F50
:1044600004D0324A536A23F4005353622F4A936AAA
:1044700043F0FF039362012120460BF082FB28707A
:104480003046BDE8F081452129480BF056F9112648
:10449000BDE7452127480BF050F91226BCE745211E
:1044A00025480BF04AF9214BD3F834809B6A13F06E
:1044B000800F03D16FF015081326B4E7424645215B
:1044C0001E480BF03AF937B1184A936A23F080037B
:1044D00093621326A7E71326A5E7452118480BF09A
:1044E0002CF91426A4E7452116480BF026F91526C9
:1044F000A3E72146404600F0A1FA80B90B4B9B6A26
:1045000013F0100FA8D0104C40F25D1221460F4856
:104510000BF004F940F25D1120460BF0F8F880F33F
:104520000988022698E700BF002B010000ED00E09B
:104530001C2B0100C8280100542B0100742B010022
:10454000902B01005C290100B42B0100CC1F01005D
:1045500070B506460D46452133480BF0EEF80023B2
:104560002B70324BDC6A14F0020424D12F4BDB6A2F
:10457000002B27DB2D4BDB6A13F0804F48D0452101
:104580002B480BF0DAF83046FFF7F6FDF8B9274B69
:104590009B6A13F0FF0F21D1244B9B6A13F47F4FCA
:1045A00023D1224B9B6AB3F5803F25D33046FFF7DA
:1045B000A1FE044604E045211E480BF0BEF800248D
:1045C000204670BD45211C480BF0B7F8F8E732686B
:1045D00045211A480BF0B1F83468F1E72A46012169
:1045E0003046FFF705FF0446EAE72A460121304638
:1045F000FFF702FE0446E3E7114C40F22A3221465F
:1046000010480BF08BF840F22A3120460BF07FF86F
:104610000B4C40F22E3221460A480BF07FF840F254
:104620002E3120460BF073F8E82B010000ED00E07E
:10463000402C0100042C01002C2C0100642C0100F2
:10464000B42B0100CC1F010030B58BB0254B5D6849
:10465000C5F30805002383F31188BFF36F8F0DF1B5
:104660002603FFF7A7FD58B104460DF1270229469E
:104670000BF089FA05469DF827306BB10BB030BDC1
:10468000194C4FF48B62214618480BF047F84FF451
:104690008B6120460BF03BF80DF1040C206861683B
:1046A000A268E368ACE80F0020696169A269E36968
:1046B000ACE80F009DF826304BB1089BC3F308020D
:1046C0005AB96FEA53236FEA4323089305E0089B26
:1046D00023F4FF7323F00103089301A928460BF08C
:1046E00038FACBE700ED00E0B42B0100CC1F01004D
:1046F000024A536943F010035361704700ED00E034
:10470000EFF30880EFF3098101B57246FFF79CFFD4
:1047100001BD00BF002013490870002080F31488F9
:10472000BFF36F8F00F09EFC00200F490860BFF3BD
:104730004F8F0E4880F3088800F042F8402080F345
:1047400011880B484FF40461401880F30988EFF397
:1047500014800221084380F31488BFF36F8F00F0A8
:104760002FF90000E02C002094ED00E040430020F1
:1047700080350020BFF34F8F0549CA6802F4E0621C
:10478000044B1343CB60BFF34F8F00BFFDE700BF67
:1047900000ED00E00400FA05084BD3F89000C0F3E8
:1047A0000720002306E0054AC2F898300021C2F82D
:1047B000A01001338342F6DB704700BF00ED00E03C
:1047C00010B572B6002484F31388FFF7E5FF234683
:1047D00008E003F120010E4A4FF0FF3042F82100BB
:1047E0000133DBB2072BF4D9002308E003F16001A9
:1047F000074A4FF0FF3042F821000133DBB2072BAC
:10480000F4D962B6BFF34F8FBFF36F8F10BD00BFF7
:1048100000E100E008B50A4B9B68834202D009F032
:10482000F1FB08BDEFF30583002BF8D0054B5A6868
:1048300042F080525A605A6A22F400425A62EEE70D
:10484000982A002000ED00E00A4A9368C3F8A80007
:104850006FF00A01C3F8AC1007494B6843F080536E
:104860004B60002383F31188BFF36F8F9368D3F8F5
:10487000AC007047982A002000ED00E016498A68D5
:104880004FF030001044EFF3098C80E8F01F402017
:1048900080F31288BFF36F8F104F4FF000664A69A4
:1048A0008A603E604FF0A404141920680C4C20600C
:1048B000D2F8A8000023C2F8A83080F3118804B50C
:1048C000104600F057F9BDE8044002F1300090E8CE
:1048D000F01F8CF309887047982A002004ED00E04F
:1048E000901600201EF0040F0CBFEFF30880EFF3CA
:1048F0000980816911F8021C0229FFD001B50BF073
:1049000034F901BD002807DB00F01F024009012334
:104910009340024A42F82030704700BF00E100E0B7
:1049200000280CDB00F01F024009012393402030D7
:10493000034A42F82030BFF34F8FBFF36F8F7047A9
:1049400000E100E0002808DB4901C9B200F1604045
:1049500000F5614080F80013704700F00F00490136
:10496000C9B2014B1954704714ED00E04209054BE0
:1049700053F8222000F01F00012303FA00F010403A
:10498000704700BF00E100E010B512F0010F10D138
:104990000231072903D840B2FFF7D4FF10BD064CFF
:1049A0005822214605480AF0B9FE582120460AF04F
:1049B000AEFE0021EFE700BF882C0100CC1F0100F4
:1049C00008B50B4B0B4A22F07F029A60BFF34F8F62
:1049D000BFF36F8FD3F8882022F47002C3F88820C9
:1049E00006F068FF09F0E0FB00F088F806F0CEFF63
:1049F00000ED00E00010000010B4A2F120040E4908
:104A000042F8081C21F0010142F8081C42F8203C41
:104A1000019B42F81C3C029B42F8183C039B42F865
:104A2000143C4FF0807342F8043C04650023C0F846
:104A3000A83010BC704700BF711D0000104B9B6870
:104A4000BBB110F1160F0BD0D3F89420A2F1400C9B
:104A5000844510D8824210D98A4207D80020704776
:104A6000D3F894208A4201D800207047D3F89400EC
:104A7000704700207047002070470020704700BF3B
:104A8000982A002008B50D4614460A4A9060D0F8CE
:104A9000A420094B1A6000F06DF8204685F30988C0
:104AA000002163B681F31188BFF36F8F00220023CA
:104AB000FDF75EF9982A0020901600200149102287
:104AC0000A60704710ED00E072B6404080F3118834
:104AD000BFF36F8FBFF34F8F30BF62B6BFF36F8FDF
:104AE000704700BF72B6494081F31188BFF34F8F02
:104AF00020BF80F3118862B6704700BF002206E035
:104B000003F00F030949194440230B7601322F2A81
:104B10000ADC53B2002BF3DB03F1604303F561437E
:104B2000402183F80013F1E7704700BFFCEC00E080
:104B300001B5EFF30580A0F110004FEAC000044971
:104B4000014409C99847BDE80140024908470000EF
:104B5000E01B01005D41000008B5034B034A012141
:104B6000034800F0A1F908BD000004200000002067
:104B7000C02C010008B5D0F89430403B04480360D5
:104B800040234360034B8360012100F0A5F908BD79
:104B90009416002000000B15084AC2F898000B6814
:104BA00023F01F03034343F01003C2F89C308B68CB
:104BB00043F00103C2F8A030704700BF00ED00E0F1
:104BC00010B50446072803D8FFF7E6FF204610BDBE
:104BD0000246452102480AF0B0FD6FF01500F6E7E5
:104BE000D02C01002DE9F84380460F469946164621
:104BF000002509E02146F0B20BF00EF8064610F150
:104C0000160F19D001360135BD4215DA05EB450402
:104C100008EB84046268002AF5D0B9F1000FE9D0EE
:104C200020460AF0E8FF0028E4D12A46452104483E
:104C30000AF083FD6FF015063046BDE8F88300BF2B
:104C4000FC2C010010B5034C01232278FFF7CAFFAA
:104C5000207010BDCB2C002008B50023094A127823
:104C6000FFF7C0FF10F1160F0AD0034606E0064A10
:104C7000C2F898300021C2F8A0100133072BF6DDEE
:104C800008BD00BFCB2C002000ED00E0F0B585B0E2
:104C9000054603A8FDF7F6FD0646002426E0B3F519
:104CA000801F40F0DA80506851F80C109368202B78
:104CB00068D9B3F1004F67D8013BB3FA83F3C3F16E
:104CC0001F035B0003F03E0343F0885343F430239B
:104CD00000900191029369462878FFF771FF002840
:104CE000C0F2BF802B7801332B700134A64240F212
:104CF000BC804FEA041C039901EB0412D068030D39
:104D00001B05B3F5000F6ED01ED8B3F5001F3DD0C4
:104D1000B3F5800FC3D1506851F80C109368202B65
:104D20005DD9B3F1004F5CD8013BB3FA83F3C3F113
:104D30001F035B0003F03E0343F0E06343F40033E2
:104D4000009001910293C6E7B3F1807F66D0B3F182
:104D5000007F40F08280506851F80C109368202B3F
:104D600077D9B3F1004F76D8013BB3FA83F3C3F19F
:104D70001F035B0003F03E0343F480230090019186
:104D80000293A8E708239FE73E239DE7576851F861
:104D90000C109368202B1ED9B3F1004F1DD8013B96
:104DA000B3FA83F3C3F11F035B0003F03E0343F048
:104DB000885343F4002300970191029310F0010FF0
:104DC00089D02B4C702221462A480AF0A7FC70217A
:104DD00020460AF09CFC0823E9E73E23E7E7082386
:104DE000AAE73E23A8E7506851F80C109368202BDF
:104DF00010D9B3F1004F0FD8013BB3FA83F3C3F1DD
:104E00001F035B0003F03E0343F0827300900191A7
:104E1000029360E70823F7E73E23F5E7506851F86F
:104E20000C109368202B10D9B3F1004F0FD8013B21
:104E3000B3FA83F3C3F11F035B0003F03E0343F0B7
:104E4000887300900191029345E70823F7E73E231A
:104E5000F5E7082390E73E238EE7452106480AF050
:104E60006CFC6FF0150005B0F0BD0020FBE700BF43
:104E7000242D0100CC1F0100542D0100044B0522FC
:104E8000C3F89420BFF34F8FBFF36F8F704700BFFD
:104E900000ED00E0BFF35F8F024B0022C3F89420C7
:104EA000704700BF00ED00E010B5FFF7CBFE10F13A
:104EB000160F00D010BD064C40F26D122146054879
:104EC0000AF02CFC40F26D1120460AF020FC00BFD5
:104ED000242D0100CC1F010010B5FFF7BDFE10F11D
:104EE000160F00D010BD064C4FF4C672214605487F
:104EF0000AF014FC4FF4C67120460AF008FC00BF0B
:104F0000242D0100CC1F010038B5254B1D68082D4C
:104F100003D8FFF7BFFF002415E0224C4FF4D272F4
:104F2000214621480AF0FAFB4FF4D27120460AF0DC
:104F3000EEFB1B4B5B6804EB440103EB8101204655
:104F4000FFF72AFE0134A542F3D818480570FFF791
:104F50009DFE10F1160F0AD0FFF790FF144BD3F807
:104F60009030C3F30723082B0DD1002038BD0D4C22
:104F70004FF4E77221460C480AF0D0FB4FF4E7717A
:104F800020460AF0C4FB074C40F20F222146064897
:104F90000AF0C4FB40F20F2120460AF0B8FB00BF24
:104FA0007C2D0100242D0100CC1F0100CB2C002002
:104FB00000ED00E008B5024B1B689847002008BDD3
:104FC000A0160020034B1860034A937843F00203B5
:104FD00093707047A01600209C01002008B504487B
:104FE0000AF0FAF8404080F311884FF0020002DF27
:104FF000AC2D010008B5064921F00701C1F10052AE
:1050000002F580220348FCF78FFF002008BD00BF97
:10501000BB530020A416002008B501230A4AC2F899
:1050200040354FF08042C2F878350AF019FE20B1C1
:105030004FF080430122C3F838264FF0804301220D
:10504000C3F88025002008BD00E0014030B108B55C
:10505000034B800143F00103984708BD704700BF30
:10506000E01E010005F06EB9BFF34F8F0549CA6815
:1050700002F4E062044B1343CB60BFF34F8F00BFD9
:10508000FDE700BF00ED00E00400FA0508B54FF0B1
:105090008043D3F8403613F0010F07D04FF01023B0
:1050A000D3F8043303F00703072B01D0002008BD19
:1050B0000E4B0122C3F804250C4BD3F80034002B0F
:1050C000FAD04FF01022D2F8043323F0070343F054
:1050D0000403C2F80433054B0022C3F80425034B34
:1050E000D3F80034002BFAD0FFF7BEFF00E00140F8
:1050F00030B100220260426082600122426070474B
:1051000010B5064C4FF48572214605480AF006FB9F
:105110004FF4857120460AF0FAFA00BF9C1F010087
:10512000CC1F010010B504460AF0CBFDC0B104F05D
:105130000F0314F0800F0AD114F0080F14D103F1FB
:10514000090040014830094B1844043010BD14F0E8
:10515000080F07D158014830044B18440430F5E7D4
:105160000020F3E70248F1E70248EFE7B01600201D
:10517000FC1700201C19002010B50024072C13D8A0
:10518000E0B20AF0B9FD18B10AF0C0FD0134F5E74C
:105190002D4C40F2792221462C480AF0BFFA40F209
:1051A000792120460AF0B3FA00240FE0264C40F2A1
:1051B0007F22214625480AF0B1FA40F27F2120469D
:1051C0000AF0A5FA18460AF0A1FD0134072C0DD803
:1051D000E0B20AF097FD03460028E7D00269002AF2
:1051E000F0D11B4A02EB84120261EBE788200AF03F
:1051F00083FD68B10AF08AFD08200AF083FD0346AA
:1052000090B10269E2B118460AF080FD002010BD9D
:105210000D4C40F28A2221460C480AF07FFA40F2F7
:105220008A2120460AF073FA074C40F29222214666
:1052300006480AF073FA40F2922120460AF067FA13
:10524000044A0261DFE700BFD02D0100CC1F01003E
:10525000401D00204019002008B50022002302480C
:1052600007F0ECF908BD00BFEC03002010B504E026
:105270004168054806F058FC2CB1FFF7EDFF0446E5
:105280000028F5D1F8E710BD2C03002010B582B03E
:105290000022002301A9194806F0E4FB18B901987F
:1052A000406002B010BD452115480AF046FAFFF7EC
:1052B000DDFF0022002301A9104806F0D3FB60B9EE
:1052C0000199496004230B740E480CF0F4F90E495F
:1052D0000E480CF034FA0020E3E745210C480AF0B0
:1052E0002CFA0C4C40F2C51221460B480AF016FA73
:1052F00040F2C51120460AF00AFA00BF2C03002034
:10530000042E0100EC030020D8160020D80B00204A
:10531000282E0100D02D0100CC1F010010B504463D
:10532000FFF7B4FF50B1014600230374047206482E
:105330000CF0C1F9054B93F8243003B910BD0449B2
:1053400004480CF0FCF9F9E7EC030020B01600204B
:10535000D8160020D80B002008B5012808D0024636
:10536000022808D030B1452104480AF0E6F904E0EB
:10537000002000E00120FFF7D1FF08BD4C2E010006
:1053800010B50820FFF7CEFE18B10446037A2BB9FA
:1053900010BD45210D480AF0D0F9F9E70123437704
:1053A0000377FFF773FF014658B1012303740373BA
:1053B000846007480CF07FF9064907480CF0BFF9F4
:1053C000E6E7452105480AF0B8F9E1E76C2E01004F
:1053D000EC030020D8160020D80B0020842E0100FA
:1053E00070B5044685782846FFF79CFE064615F002
:1053F000800F15D1E27882B3012A45D1FFF746FF2D
:105400000146002845D00123737703740373866037
:1054100020480CF050F9204920480CF090F938E071
:10542000E2783AB1032A34D02B4645211C480AF0D1
:1054300084F92EE0FFF72AFF014650B30023B3772B
:105440000123037403230373866012480CF033F9BD
:10545000114912480CF073F91BE0FFF717FF0546DE
:10546000B8B1A1780F480AF00BFCF06001232B744F
:1054700002232B73AE60294606480CF01CF906493E
:1054800006480CF05CF904E02B46452104480AF07C
:1054900054F970BDEC030020D8160020D80B002072
:1054A000A02E01000070024010B500240CE0324C28
:1054B0004FF40C72214631480AF030F94FF40C7168
:1054C00020460AF024F90134072C0BDCE0B20AF084
:1054D00013FC0028EBD0027A002AF4D0407A02F0C4
:1054E00009F8F0E788200AF007FC18B1027A6AB9D7
:1054F00000241CE0204C40F2392221461F480AF0CB
:105500000DF940F2392120460AF001F9407A01F004
:10551000F1FFEDE7184C40F24222214617480AF00D
:10552000FDF840F2422120460AF0F1F80134072C40
:105530000BDCE0B20AF0E6FB0028EBD0027A002A8E
:10554000F4D0407A01F0D6FFF0E708200AF0DAFB49
:1055500010B1027A62B910BD074C40F24B222146CD
:1055600006480AF0DBF840F24B2120460AF0CFF85B
:10557000407A01F0BFFFEEE7D02D0100CC1F010003
:105580004B7F43B370B584B00C460B7F0BB904B0AE
:1055900070BD00264E770E7700F138054FF0FF32D0
:1055A0004FF0FF33284606F06DFE63690193636890
:1055B0000293039601A9607A01F038FB064B9842EA
:1055C00003D1284606F04EFFE1E702464521034895
:1055D0000AF0B3F8F5E770470000AD0BD42E0100D8
:1055E00010B5002843D08446837A002B4BD1446900
:1055F0004FF0000EC4F800E0C4F804E02B4BD3F8E1
:1056000080242270D3F884246270D3F8881489B27D
:10561000D3F88C24120292B20A436280D3F8902409
:1056200092B2D3F89414090289B20A43A280D3F843
:10563000982492B2D3F89C341B029BB21343E380AC
:105640000823C3601A4B2068616803C3DCF800308C
:1056500071469CF80900984794F90030002B01DB53
:10566000E388E3B9134B0022A3F88C2210BD124C3F
:1056700040F2E222214611480AF050F840F2E221BD
:1056800020460AF044F80C4C40F2E32221460B4835
:105690000AF044F840F2E32120460AF038F8054ABF
:1056A000A2F88C3201F080FCE0E700BF00700240FD
:1056B000B4160020B0160020D02D0100CC1F010030
:1056C00038B5046834B10379032B12D8DFE803F04E
:1056D0000E12171C184C40F22B32214617480AF0C4
:1056E0001DF840F22B3120460AF011F82046FFF752
:1056F00077FF38BD21461248FFF742FFF9E72368DC
:105700000121607A9847F4E7A37A0BB9E37F23B1CC
:1057100023680221607A9847EBE70A4D4FF0FF3289
:105720004FF0FF33284606F0ADFD01F005FD284699
:1057300006F098FEECE700BFD02D0100CC1F010061
:10574000B0160020E816002010B50378042B29D8E5
:10575000DFE803F029031948570001F005F908BBF9
:1057600001F050F82D480AF00BFB00281ADA2C4CF7
:1057700040F2A92221462B4809F0D0FF40F2A9218E
:10578000204609F0C4FF254C2046FFF78DFE00207F
:1057900001F0BAF8012384F82530236813B1002101
:1057A0000220984710BD1D4C002384F8253001F0DD
:1057B00025FE20460AF0CAFA002807DB174B1B68B3
:1057C000002BEFD0002104209847EBE7144C40F267
:1057D000C1222146134809F0A1FF40F2C121204611
:1057E00009F095FF0D4B93F82530002BDAD001F02E
:1057F000C5F80A4B1B68002BD4D000210520984720
:10580000D0E7064B1B68002BCCD0044A92F8252029
:10581000002AC7D0002106209847C3E7B016002011
:10582000D02D0100CC1F010010B50BF048FD01F098
:10583000E5FD00F0C7FFFFF719FDFFF79DFC40B93C
:105840000BF036FD0F4801F073F90F4B98420CD165
:1058500010BD0E4C40F2854221460D4809F05EFF16
:1058600040F28541204609F052FF084C40F28C423C
:105870002146074809F052FF40F28C41204609F0CA
:1058800046FF00BF9D5A00000000AD0BD02D010067
:10589000CC1F010070B505460FE06168324806F084
:1058A00043F90AE015F8043C23B304F10800FFF7BC
:1058B00007FF61682C4806F037F9FFF7CDFC044676
:1058C00000284FD0294B93F8253013B9237C002BA7
:1058D000E3D1227C042A40D801A353F822F000BF70
:1058E00003590000A55800000D5900003959000067
:1058F0004D590000A3685A7A45211D4809F01DFF43
:10590000D3E704F10800FFF71FFFD2E705F1100607
:105910004FF0FF324FF0FF33304606F0B3FCFFF795
:105920002BFC304606F09EFD55F8283C002BC0D0DD
:10593000002101209847BCE7FFF722FD55F8283CDD
:10594000002BB6D000210A209847B2E7452109482C
:1059500009F0F3FEFFF768FFABE74521064809F0C1
:10596000ECFEA6E770BD00BF2C030020B01600209F
:10597000002F01002C2F0100482F010070B50446B4
:1059800085782846FFF7CEFB064615F0800F16D126
:10599000E278002A31D0012A6AD1FFF777FC01466C
:1059A00000286AD001237377037403738660334839
:1059B0000BF081FE324933480BF0C1FE5DE0E27826
:1059C0003AB1032A59D02B4645212F4809F0B5FE9C
:1059D00053E0FFF75BFC014600284ED00023B3776D
:1059E0000123037403230373866024480BF063FED2
:1059F000234924480BF0A3FE3FE0FFF747FC054690
:105A000000283AD00123037402230373866006F151
:105A10000C01A0780AF04BFA024690B91B4BB3F880
:105A20008C32F26893421CD8184B0022A3F88C22C7
:105A3000294612480BF03FFE114912480BF07FFE39
:105A40001BE04521124809F078FE124C4FF46772B2
:105A50002146114809F062FE4FF46771204609F0B3
:105A600056FE9B1A094AA2F88C3201F09DFADFE734
:105A70002B464521044809F060FE70BDEC03002070
:105A8000D8160020D80B0020A02E0100B016002050
:105A9000682F0100D02D0100CC1F010010B588B087
:105AA0000023039304930593069307930378013B24
:105AB000052B1CD8DFE803F025031D214329032310
:105AC0008DF81430FFF7E2FB034680B19DF81C20EF
:105AD000027400F1080205A903C982E8030019460F
:105AE00021480BF0E8FD214921480BF028FE08B0C1
:105AF00010BD04238DF81430E4E704238DF814302E
:105B0000E0E702238DF81C30DCE704468078FFF7DD
:105B100009FB837A012B0ED005D8002BE7D1204654
:105B2000FFF72CFFE3E7023BDBB2012BDFD8204677
:105B3000FFF756FCDBE72046FFF752FCD7E701A84A
:105B400001F00CFA9DF80530052B07D00020FFF777
:105B5000E9FA01238DF81C300590B3E79DF8043075
:105B600013F0600FC3D0F1E7EC030020D81600203B
:105B7000D80B002030B583B0124800F0D9FF124B8B
:105B800098421BD1114805F043FA114805F080FAFC
:105B9000104D002400944FF0FF334FF480620E4903
:105BA000284607F0F3F80D49284606F02DF80C4971
:105BB0000C4807F06BF8204603B030BD6FF00400CE
:105BC000FAE700BF9D5A00000000AD0BC430010091
:105BD000C0300100D80B002040310020902F010080
:105BE00095580000D816002010B5184B93F82430B3
:105BF00013B10024204610BD154C20460BF008FDC3
:105C0000002001F0D3FE44F81C0C002201212720C3
:105C1000FEF7BAFE0BF04CFBFFF7AEFA044618B9DC
:105C20000A4B012283F824200A4B1B681BB10A4946
:105C30000A480BF084FD4FF08043D3F8383413F05A
:105C4000010FD7D00020FFF787FBD3E7B016002065
:105C5000E8160020EC030020D8160020D80B002006
:105C6000114B93F82430C3B10F4B93F82530BBB1DF
:105C70000E4BD3F87034DBB2834201D10020704761
:105C800010B50B4C4FF4AB6221460A4809F046FDB3
:105C90004FF4AB61204609F03AFD6FF012007047F7
:105CA0006FF01200704700BFB01600200070024075
:105CB000D02D0100CC1F010008B5027802F00F01C1
:105CC000037903B951B908290FD8012B14D0012B3E
:105CD00023D012F0080F19D1002008BD452110482B
:105CE00009F02BFD4FF0FF30F7E745210D4809F093
:105CF00024FD4FF0FF30F0E712F0080FE7D15721F5
:105D0000094809F01AFD4FF0FF30E6E75721074830
:105D100009F013FD4FF0FF30DFE70020DDE700BFA3
:105D20009C2F0100C02F0100E42F01000030010072
:105D300038B5144B93F82430F3B10446057828465F
:105D4000FFF7F0F9D8B14572227982726288426019
:105D5000207810F0080F03D163885A1E134204D133
:105D6000618800F099FE002038BD4521064809F001
:105D7000E4FC6FF01500F7E76FF01200F4E76FF046
:105D80001500F1E7B01600202430010038B5184B9B
:105D900093F824301BB30446154B93F825300BB30E
:105DA000FFF7C0F9054600B3837A012B10D007D85E
:105DB0000BB901F0C7F90020E8606B69AB6138BD31
:105DC000023BDBB2012BF6D8204601F06BF8F2E77C
:105DD0004521084809F0B1FC6FF01500EFE76FF0BE
:105DE0001200ECE76FF01200E9E76FF01500E6E74C
:105DF000B016002054300100114B93F824309BB1B1
:105E000010B504460E4B93F8253083B1FFF78AF99D
:105E100080B114F0080F10D1204601F081F820461F
:105E200001F0A8FB002010BD6FF0120070476FF06A
:105E30001200F8E76FF01500F5E76FF01500F2E7D4
:105E4000B016002038B5104B93F824307BB10446CF
:105E50000D460D4B93F8253063B1FFF763F960B140
:105E600075B1204601F03AF82870002038BD6FF077
:105E70001200FBE76FF01200F8E76FF01500F5E78E
:105E80006FF01500F2E700BFB016002038B5154BD3
:105E900093F82430EBB10446FFF744F90546D8B136
:105EA00014F0080F09D02B7ACBB901232B720D4BBC
:105EB00093F8253043B9002038BD204601F030F872
:105EC000204601F057FBEEE7204601F013FB0020CF
:105ED000F2E76FF01200EFE76FF01500ECE76FF0FC
:105EE0007700E9E7B01600202DE9F04184B01F46A5
:105EF000404B93F82430002B70D004468846164659
:105F00003C4B93F82530002B6BD010F0800F6BD0FA
:105F1000FFF708F90546002869D0037A002B42D024
:105F20004FF0FF324FF0FF33334806F0ABF9AB7F51
:105F3000002B40D11EB9EB7F0BB10023EB77AB7A7E
:105F400063B95EB12B4A5289B24207D96968B6FB80
:105F5000F1F201FB12620AB90122EA771BB901F0E2
:105F6000F7F8A0422DD10123AB77CDF8048002963B
:105F70000023039301A9204600F058FE02461F4B60
:105F8000984225D00023AB7707B13B6045211C48E0
:105F900009F0D3FB6FF00404174806F063FA2046BB
:105FA00004B0BDE8F08122464521164809F0C5FB42
:105FB0006FF01504F3E7104806F054FA6FF00A0486
:105FC000EDE701F0B9F80C4806F04CFA0024E6E7DA
:105FD00017B13E600024DFE70024DDE76FF0120414
:105FE000DDE76FF01204DAE76FF01504D7E76FF022
:105FF0001504D4E7B0160020E81600200000AD0B11
:10600000A03001007C3001002DE9F0411F462E4BED
:1060100093F82430002B4AD006460D4690462A4B72
:1060200093F82530002B45D010F0800F45D139B3BF
:106030003046FFF777F80446002841D0037A23B3AF
:106040004FF0FF324FF0FF33204806F01BF9E368B2
:106050004646984528BF1E46FDB13246A1692846EE
:106060000BF01CFDA3693344A361E3689B1BE36051
:1060700007B13E60154806F0F5F90020BDE8F08153
:10608000002AD5D06FF01500F8E7324645211048B8
:1060900009F053FB6FF01500F0E7B8F1000FDCD109
:1060A00007B13B60094806F0DDF90020E6E76FF034
:1060B0001200E3E76FF01200E0E76FF01500DDE794
:1060C0006FF01500DAE700BFB0160020E8160020D8
:1060D0007C30010038B5294B93F82430002B41D097
:1060E0000546264B93F82530002B3ED010F0800F4C
:1060F0003ED1FFF717F8044600283CD0037A9BB145
:106100004FF0FF324FF0FF331D4806F0BBF8E36855
:106110002BB96369A36101232377637F63B91848AF
:1061200006F0A0F9002038BD2A464521154809F09F
:1061300004FB6FF01500F6E7FFF7A8F8014658B129
:1061400001230374846003730F480BF0B4FA0F4902
:106150000F480BF0F4FAE2E7094806F083F96FF014
:106160000B00E0E76FF01200DDE76FF01200DAE7F6
:106170006FF01500D7E76FF01500D4E7B0160020D8
:10618000E81600207C300100EC030020D816002027
:10619000D80B0020084B93F824303BB110B50C46C7
:1061A000FEF7C0FF28B10460002010BD6FF01200A0
:1061B00070476FF01500F8E7B0160020014B18602B
:1061C000704700BFB016002008B5074B93F8243085
:1061D00023B1FEF7A7FF20B1406808BD6FF01200A1
:1061E000FBE76FF01500F8E7B016002008B509F0DE
:1061F00034FE18B1024B8222C3F81C2C08BD00BF2C
:106200000070024008B509F028FE18B1024B0022C8
:10621000C3F81C2C08BD00BF0070024000B583B05D
:106220000023074A1370074A1370019301238DF866
:106230000430054B1B6801A8984703B05DF804FBC8
:10624000CF2C0020CE2C00203821002000B583B0B8
:1062500000238DF804300C4BD3F82025ADF8062030
:10626000D3F8C03463B94FF48071084A13680B4304
:106270001360074B1B6801A8984703B05DF804FB47
:106280004FF00121F1E700BF0070024034210020EF
:106290003821002000B583B0012303FA01F1154A2B
:1062A00013680B43136010F0800F12D1124B1B6860
:1062B00019420BD106238DF804308DF80600012316
:1062C0008DF807300D4B1B6801A8984703B05DF8A7
:1062D00004FB094B1B681942F8D106238DF80430E2
:1062E0008DF8060000238DF80730044B1B6801A8C9
:1062F0009847EBE73421002030210020382100208E
:1063000000B583B0114BD3F8803413F0800F1BD14C
:1063100000220F4B1A700F4A136823F00113136009
:106320000D4A136823F48033136043F001031360B4
:106330000023019305238DF80430084B1B6801A846
:10634000984703B05DF804FB8022E2E7007002404A
:10635000CE2C0020302100203421002038210020C4
:106360004FF04002EFF3118382F31288BFF36F8F77
:106370000B4AD2F8002C72B9094A49F27531C2F8B9
:10638000001CC020C2F8140CC2F8001C83F3118852
:10639000BFF36F8F7047024AC021C2F8141CF5E7A3
:1063A00000E006404FF04002EFF3118382F31288C1
:1063B000BFF36F8F0B4AD2F8002C72B9094A49F229
:1063C0007531C2F8001C0020C2F8140CC2F8001C81
:1063D00083F31188BFF36F8F7047024A0021C2F820
:1063E000141CF5E700E006404FF04002EFF3118384
:1063F00082F31288BFF36F8F0B4AD2F8002C72B968
:10640000094A49F27531C2F8001C0320C2F8140D84
:10641000C2F8001C83F31188BFF36F8F7047024AE4
:106420000321C2F8141DF5E700E006404FF04002DA
:10643000EFF3118382F31288BFF36F8F0B4AD2F808
:10644000002C72B9094A49F27531C2F8001C0020CB
:10645000C2F8140DC2F8001C83F31188BFF36F8FCC
:106460007047024A0021C2F8141DF5E700E006401B
:1064700008B509F0DFFCC0B909F0D2FCC0B9114B76
:106480000122C3F800250F4BD3F8003413F4006F3A
:10649000F9D00C4B4FF40062C3F8002409F0C0FCA3
:1064A00048B909F0C7FC48B908BDFFF79DFFE3E70D
:1064B000FFF756FFE3E7FFF775FFF2E7FFF7B6FFD9
:1064C000F2E700BF0070024000F00F03082B08D86D
:1064D00010F0800F12D10A4803EB430300EBC30016
:1064E000704710B5074C4FF4D7722146064809F0A3
:1064F00015F94FF4D771204609F009F90348EBE785
:10650000801F0020D4300100CC1F01005820002043
:1065100000F00F03082B05D810F0800F0FD11020CA
:106520001844704710B5074C40F2C1122146064886
:1065300009F0F4F840F2C111204609F0E8F8002013
:10654000EEE700BFD4300100CC1F010000F00F03C4
:10655000082B09D842B210F0080F16D1002A10DB20
:106560000D4800EB8300704710B50C4C4FF491724E
:1065700021460B4809F0D2F84FF49171204609F0FA
:10658000C6F8084800EB83007047002A01DB064884
:1065900070470648704700BF30710240D430010098
:1065A000CC1F010008710240507102402C71024062
:1065B00000F00F03082B0FD842B210F0080F22D1C1
:1065C000002A16DB03EB83039B0003F1804303F5F2
:1065D0001C33D3F80807704710B5104C40F2351241
:1065E00021460F4809F09AF840F23511204609F08B
:1065F0008EF803EB83039B0003F1804303F51C3308
:10660000D3F808067047002A03DB064BD3F8A80727
:106610007047044BD3F8A806704700BFD430010080
:10662000CC1F01000070024038B5934211D80C68AD
:1066300024B104F06044B4F1005F16D14C689C4270
:106640001FD20025456009680160934222D00020D6
:1066500038BD134C40F263122146124809F05EF82F
:1066600040F26311204609F052F80D4C4FF4B2721B
:1066700021460C4809F052F84FF4B271204609F057
:1066800046F843600D680560E41A4C6008681844D9
:106690000860DAE70CB90020DAE70120D8E700BF8C
:1066A000D4300100CC1F010010B500F00F03082BFF
:1066B00015D84FFA80FC10F0080F2AD1BCF1000F5A
:1066C00019DB1D4C03EB830004EB8000C0F80017BE
:1066D000C0F804270A33012244F8232010BD174CC8
:1066E0004FF4A4722146164809F018F84FF4A4712B
:1066F000204609F00CF8104803EB830C00EB8C0CDF
:10670000CCF80016CCF8042600EB8300012343608C
:10671000E4E7BCF1000F07DB074BC3F8A017C3F891
:10672000A42701229A64D9E7034BC3F8A016C3F843
:10673000A42601225A62D1E700700240D430010041
:10674000CC1F0100F8B506460C4615464B6893422F
:1067500000D81D46216801F06043B3F1005F23D0EB
:10676000402D15D8144F40232A4638460BF010F917
:10677000376075606068401B606023682B4423604D
:10678000A36813F0010F12D0281E18BF0120F8BD16
:106790000A4C4FF4C1722146094808F0BFFF4FF47C
:1067A000C171204608F0B3FF23683360E1E7003889
:1067B00018BF0120EBE700BF401F0020D4300100CC
:1067C000CC1F01000B4B1B78012B05D100230A4A7B
:1067D0001360084A1370704710B5084C40F27342BA
:1067E0002146074808F09AFF40F27341204608F01E
:1067F0008EFF00BFD02C002038210020D4300100B3
:10680000CC1F010010B5364B1B78012B40D1354B06
:106810004FF40062C3F80024FFF72AFE09F027FBBB
:1068200018B1314B1B78002B3ED109F003FB002837
:1068300043D109F0EBFA58B12A4B40F2E372C3F8A6
:1068400000284022C3F80428BFF36F8FBFF34F8F97
:10685000244B8022C3F81C250122C3F83025234B8A
:1068600040F2FF121A600023214A1360214A13707C
:10687000214B9B68012B23D1FFF7C4FC1F4B002247
:106880001A70174B02221A7009F0D4FA20BB10BDFF
:106890001B4C40F27B4221461A4808F03FFF40F271
:1068A0007B41204608F033FF00240E4BC3F800451F
:1068B000FFF7DEFD0C4B1C70B7E7FFF795FDB8E75F
:1068C0000F4C40F2A74221460E4808F027FF40F245
:1068D000A741204608F01BFFFFF7A8FDD7E700BF40
:1068E000D02C002000700240200300203421002022
:1068F00030210020CC2C0020DC030020CE2C0020F6
:10690000D4300100CC1F010010B5104B1B78022BB6
:106910000ED10F4B00221A70B0B90E4B0E4CC4F8BA
:106920000033272009F057F90123C4F8043510BDBE
:106930000A4C40F2DB422146094808F0EFFE40F2E3
:10694000DB41204608F0E3FE064BE7E7D02C0020B1
:10695000CF2C0020FDFFDF0100700240D430010089
:10696000CC1F0100FDFFFF01034B1878012894BFE5
:1069700000200120704700BFD02C00204FF04002C3
:10698000EFF3118382F31288BFF36F8F104A1278EE
:1069900002F0FF00B2B10F4AD2F8002412F4007FD7
:1069A0000FD10C4A0121C2F82C15D2F82C15D2F8BF
:1069B000002412F4007F05D00020064AC2F82C05FE
:1069C00000E0002083F31188BFF36F8F704700BF92
:1069D000CF2C002000700240034BD3F82C05003868
:1069E00018BF0120704700BF0070024010B582B090
:1069F000244BD3F80044C3F8004414F4807F0BD038
:106A0000214B01221A700023019302238DF80430D8
:106A10001E4B1B6801A8984714F4007F0AD000237E
:106A2000194A1370019303238DF80430174B1B6828
:106A300001A8984714F4806F02D0134B1B780BB950
:106A400002B010BDFFF7C8FF80B900230E4A1370D3
:106A50000C4A0121C2F808159165019304238DF8B1
:106A600004300A4B1B6801A89847E9E7084C40F23C
:106A7000F5222146074808F051FE40F2F521204654
:106A800008F045FE00700240CF2C00203821002085
:106A9000D4300100CC1F010010B50C464B1E19422A
:106AA00002D010F00F0F16D014B910F00F0F1ED037
:106AB00010F0080308D01B4AD2F81C25802A22D0E7
:106AC00040F2FF32944202D903BB402C1ED8FFF79C
:106AD000FBFC848210BD144C40F2635221461348E3
